:03000000020003F8
:0C000300787FE4F6D8FD75812002004AE9
:1002B8000A10183F92133551503B101102080000E4
:1002C800020A0000010C00010D00010E00010F00E0
:0402D800C100C1019F
:1002DD00E4F51AD2857B007A00791A12008F80F529
:10016800D3ED9509E5086480F8748098400A05097C
:10017800E509701805088014E50945087006F508B2
:10018800F5098008E509150970021508E4FDFCC3A6
:10019800ED9FEE6480F8EC648098501BED9509E5BE
:1001A800086480F8EC6480984004D2858002C28597
:0901B8000DBD00010C80D8D285B8
:0101C100221B
:10010900EDD3950BE50A6480F8748098400A050BD5
:10011900E50B7015050A8011ED7006F50AF50B80DF
:1001290008E50B150B7002150A7DC87C00EF24C881
:10013900FBE43EFAC3ED9BEA6480F8EC64809850D6
:100149001BED950BE50A6480F8EC6480984004D2B5
:0E015900858002C2850DBD00010C80D1D285CB
:010167002275
:1001C200A282B3E433FFA284B3E433FEE50C8FF0E2
:1001D200A42FF50CE50D8EF0A42EF50DE50E70059D
:1001E200BF0102D200E50F7005BE0102D2018F0EDF
:1001F2008E0FE50CD39405400B300008E4F50CC2D9
:10020200007F0122E50DD39405400A300107E4F591
:070212000DC201FF227F0273
:0102190022C2
:10026700E4FDFCC3ED9FEC9E501EE4FBFAC3EB9D3F
:10027700EC6480F8EA64809850070BBB00010A80A1
:08028700EC0DBD00010C80DB51
:01028F00224C
:0502F500EF540FFF2291
:0802ED00EF54F0C4540FFF228E
:06008F008B1B8A1C891D79
:10009500751E02C287D28612021AFF1202F574106B
:1000A5002FF8E6F5A0AB1BAA1CA91D12021AFD7FAD
:1000B500967E0012016875A0FFD287C286AB1BAA87
:1000C5001CA91D12021AFF1202ED74102FF8E6F595
:1000D500A0AB1BAA1CA91D12021AFD7F96120109CD
:1000E50075A0FF1201C28F1EE51EB40109AB1BAA44
:1000F5001CA91D020290E51E7009AB1BAA1CA91DB7
:030105001202558E
:0101080022D4
:1002900012021AFF1202F5EF6409600574010202EE
:1002A0003312021AFFB49904749980081202EDEF18
:0802B00004C454F012025522AF
:10000F000202DDE493A3F8E493A34003F68001F228
:10001F0008DFF48029E493A3F85407240CC8C333F2
:10002F00C4540F4420C8834004F456800146F6DFC1
:10003F00E4800B01020408102040809002B8E47E97
:10004F00019360BCA3FF543F30E509541FFEE493B6
:10005F00A360010ECF54C025E060A840B8E493A37D
:10006F00FAE493A3F8E493A3C8C582C8CAC583CAA8
:10007F00F0A3C8C582C8CAC583CADFE9DEE780BE60
:0102DC000021
:10021A00BB010689828A83E0225002E722BBFE02E2
:09022A00E32289828A83E4932215
:10023300BB010989828A83F8E028F022500327F75B
:1002430022BBFE05F8E328F3228A838982F8E4932C
:0202530028225F
:10025500BB010689828A83F0225002F722BBFE0188
:02026500F32282
:00000001FF
